:020000040800F2
:10000000384300209D0200084B580008B1500008FA
:1000100049580008F32A0008116E0008000000008B
:1000200000000000000000000000000005020008C1
:10003000592D00080000000049020008D56400089E
:10004000B7020008B7020008B7020008B7020008AC
:10005000B7020008B7020008B7020008B70200089C
:10006000B70200085135000857350008B7020008EC
:10007000B7020008B7020008B7020008B70200087C
:10008000B7020008B7020008B7020008B70200086C
:10009000B7020008B7020008B70200085D35000883
:1000A000B702000861650008B7020008B70200083F
:1000B0006D650008B7020008B7020008B702000823
:1000C000B7020008B7020008B7020008B70200082C
:1000D000B7020008C5690008B7020008A96C00084B
:1000E000B7020008B7020008B702000800F002F8E3
:1000F00000F079F80AA090E8000C82448344AAF149
:100100000107DA4501D100F06EF8AFF2090EBAE846
:100110000F0013F0010F18BFFB1A43F0010318473B
:100120000CF900002CF900000A444FF0000C10F804
:10013000013B13F0070408BF10F8014B1D1108BF65
:1001400010F8015B641E05D010F8016B641E01F805
:10015000016BF9D113F0080F1EBF10F8014BAD1C55
:100160000C1B09D16D1E58BF01F801CBFAD505E073
:1001700014F8016B01F8016B6D1EF9D59142D6D3CD
:10018000704700000023002400250026103A28BFF5
:1001900078C1FBD8520728BF30C148BF0B607047F9
:1001A00066290EF05F8167290EF05C81642900F0FA
:1001B0003781782900F07081732900F04C87002086
:1001C00070471FB501F066FA0400002000210DF011
:1001D00007F8401C6060002000210DF017F8E06077
:1001E0001FBD10B510BD01F01BFD1146FFF7E9FF63
:1001F00009F0AEFA01F064FF03B4FFF7F2FF03BCAD
:1002000007F06EF9224B19680868B0E8F00F80F328
:100210000988BFF36F8F4FF0000080F311884EF014
:100220000D0E70470000000006480068006880F36B
:10023000088862B661B6BFF34F8FBFF36F8F00DFE0
:1002400000BF00BF08ED00E0EFF30980BFF36F8F40
:100250000F4B1A6820E9F00F106008B54FF05000FE
:1002600080F31188BFF34F8FBFF36F8F0CF00AFE3E
:100270004FF0000080F31188BDE808401968086855
:10028000B0E8F00F80F30988BFF36F8F704700BFAD
:10029000A4000020EFF30580704700000948804764
:1002A00009480047FEE7FEE7FEE7FEE7FEE7FEE758
:1002B000FEE7FEE7FEE7FEE704480549034A054B73
:1002C000704700005F650008ED000008382E002030
:1002D00038430020382E0020704710B54C1084EAB7
:1002E000530404D54042C1F1000138BF491E1B42EE
:1002F00004D55242C3F1000338BF5B1E00F092FBED
:1003000014F0804F04D04042C1F1000138BF491EB3
:1003100014F0004F04D05242C3F1000338BF5B1EFB
:1003200010BD10B5044600F075FB0068005DC00606
:1003300002D504F1200010BD204610BD0FB40449C1
:1003400010B503AA029800F08BFE10BC5DF814FBF8
:10035000000000200FB41CB5084B06AA7B44694678
:100360000090059800F04DFE04460020694600F01C
:100370005BFE20461CBC5DF814FB0000C90C0000AD
:1003800070B5044685690068C10601D5302600E0D5
:100390002026C00707D070BDD4E901213046904720
:1003A000206A401C20626D1EF6D570BD70B50446F3
:1003B00085690078C00707D170BDD4E901212020EC
:1003C0009047206A401C20626D1EF6D570BD70B546
:1003D0000C460546012A05D02878800600D5EA6932
:1003E000002302E0012305E05B1C934202D2E05CA3
:1003F0000028F9D1A869E618C01AA861286A18442B
:1004000028622846FFF7BCFF04E0D5E9012114F873
:10041000010B9047B442F8D32846FFF7C7FF70BDE1
:100420002DE9F0410646002410687529314616A5CD
:1004300010D0AFF30080002802DA404213A507E095
:1004400031688A0701D512A502E0490704D511A534
:10045000012401E0AFF3008000210A2206F1240705
:1004600009E0B0FBF2FCB0FBF2F302FB1C00303001
:1004700078541846491C0028F3D123462A463046B2
:10048000BDE8F04100F050BB000000002D0000006E
:100490002B0000002000000070B504460D462146E8
:1004A0001068AFF300802188090502D50F4A7A440D
:1004B00002E00E4A7A440E32002104F1240305E0E2
:1004C00000F00F060009965D5E54491C0028F7D124
:1004D00020780023000704D5702D02D009B1022333
:1004E00011322046BDE8704000F01EBB84F30000CE
:1004F0002DE9F05F894604464FF0000ADFF824B189
:10050000FB44C0F820A02046E168884700287DD041
:10051000252806D0D4E901219047206A401C20629A
:10052000F1E700255F462046E16888472028064617
:1005300007DB312E05D2B81910F8200C08B105439D
:10054000F1E7A80701D525F00405C4F81CA0002791
:10055000C4F818A02A2E09D0304606F0BAFF38B3E6
:1005600004EB8708303EC8F8186019E059F8041BFE
:10057000204604EB87029161E1688847012F064617
:1005800018D1E069002820DA25F020051DE0D8F810
:10059000180000EB800006EB40003038C8F8180067
:1005A0002046E1688847064606F093FF0028EED112
:1005B000012F0AD02E2E08D12046E16888477F1CE3
:1005C0000646022F45F02005C4DBA069002803DAA7
:1005D000404245F00105A061E80701D025F0100573
:1005E000A6B1A6F14100192802D8203645F40065CD
:1005F0004A463146204625604D46FFF7D1FD60B1A1
:10060000012807D0ED1D25F0070000E007E000F10C
:10061000080978E705F1040975E730467AE7206AAA
:10062000BDE8F09F5AF300000FB400B58DB010A9DB
:10063000099000910B904FF0FF300A9000200C9031
:10064000064878440690064878446A4607900F9911
:1006500009A800F099FF0DB05DF814FB630F0000CE
:100660007B0F000030B505460B462A4613F8014BB8
:1006700012F8010B08B1A042F8D01CB1002802D03A
:100680006D1CF1E7284630BD40EA010310B59B0719
:100690000FD1042A0DD310C808C9121F9C42F8D0EC
:1006A00020BA19BA884201D9012010BD4FF0FF309D
:1006B00010BD1AB1D30703D0521C07E0002010BDB3
:1006C00010F8013B11F8014B1B1B07D110F8013B3F
:1006D00011F8014B1B1B01D1921EF1D1184610BD20
:1006E00040EA0103024630B59B0710D14FF00134B8
:1006F00000E008C208C91D1B9D4315EAC41FF8D0BD
:1007000013F0FF0102F8011B0DD01B0AF8E711F8E6
:10071000013B002B02F8013B05D011F8013B002BF7
:1007200002F8013BF3D130BD10B5431C02E010F8D4
:10073000011B71B18107FAD14FF0013202C88C1A46
:100740008C4314EAC211F9D0C01A0A0603D0C01EA5
:1007500010BDC01A10BD0A0401D0801E10BD0902D0
:10076000FCD0401E10BD40EA010370B59B072ED19E
:100770004FF00136042A2AD308C810C99D1B9D4397
:10078000121F15EAC61517D0D8B2E1B2401A50EAC6
:10079000056110D198B2A1B2401A50EA05410AD1C0
:1007A00023F07F4024F07F41401A50EA052102D116
:1007B000180EA0EB146070BDA342DBD018BA21BAAA
:1007C000884201D9012070BD4FF0FF3070BD0AB9D9
:1007D000002070BD10F8013B11F8014B63B1A3423A
:1007E0000AD1521E08D010F8013B11F8014B1BB181
:1007F000A34201D1521EEDD1181B70BD032A40F255
:10080000308010F0030C00F0158011F8013BBCF1B2
:10081000020F624498BF11F801CB00F8013B38BFCA
:1008200011F8013BA2F1040298BF00F801CB38BFD8
:1008300000F8013B11F0030300F02580083AC0F0F6
:10084000088051F8043B083A51F804CBA0E808109E
:10085000F5E7121D5CBF51F8043B40F8043BAFF3D1
:100860000080D20724BF11F8013B11F801CB48BF2B
:1008700011F8012B24BF00F8013B00F801CB48BF61
:1008800000F8012B704710B5203AC0F00B80B1E89A
:100890001850203AA0E81850B1E81850A0E81850B5
:1008A000BFF4F5AF5FEA027C24BFB1E81850A0E8BE
:1008B000185044BF18C918C0BDE810405FEA827CD8
:1008C00024BF51F8043B40F8043B08BF7047D207EF
:1008D00028BF31F8023B48BF11F8012B28BF20F890
:1008E000023B48BF00F8012B704702F0FF0343EAC8
:1008F000032242EA024200F002B84FF0000204294B
:10090000C0F0128010F0030C00F01B80CCF1040C3E
:10091000BCF1020F18BF00F8012BA8BF20F8022B72
:10092000A1EB0C0100F00DB85FEAC17C24BF00F818
:10093000012B00F8012B48BF00F8012B70474FF046
:10094000000200B5134694469646203922BFA0E81F
:100950000C50A0E80C50B1F12001BFF4F7AF09072B
:1009600028BFA0E80C5048BF0CC05DF804EB89001C
:1009700028BF40F8042B08BF704748BF20F8022B5F
:1009800011F0804F18BF00F8012B70474FF0013C69
:1009900050F8042B51F8043B9A4221D1A2EB0C03EE
:1009A000934313EACC1317D150F8042B51F8043BAE
:1009B0009A4215D1A2EB0C03934313EACC130BD14B
:1009C00050F8042B51F8043B9A4209D1A2EB0C03D6
:1009D000934313EACC13DBD04FF00000704700BF05
:1009E000D01A01BAB1FA81F101F0180122FA01F02E
:1009F000CB40C1F12001DBB2C0B2C01A2CFA01F326
:100A0000D11A914311EAC311E6D17047704770477C
:100A10007047704710B500F03DFE001D10BD00BFCF
:100A2000C1C7000053EA020C00F069802DE9F04BC9
:100A30004FF00006002B1FBFB3FA83F503FA05F44D
:100A400024FA05F65E4012BF1643B2FA82F502FAA6
:100A500005F4C5F120051EBF22FA05FC44EA0C048A
:100A6000203556EA044C4FEA144418BF641C4FF07A
:100A700000084FF00009904271EB030C39D30029B4
:100A800019BFB1FA81F701FA07F6B0FA80F700FA58
:100A900007F6C7F120071EBF20FA07FC46EA0C063E
:100AA0002037B6FBF4FCA7EB0507103F07F01F0B40
:100AB000CBF120060CFA0BFB2CFA06F644BFB3462A
:100AC0000026202FA4BF5E464FF0000B5BEA060C09
:100AD00008BF4FF0010B19EB0B09ABFB027C48EB95
:100AE0000608C01B06FB02CC0BFB03CC71EB0C0110
:100AF000C1E70B46024641464846BDE8F08B13B5B8
:100B00004FF000004FF00001AFF30080BDE81C4043
:100B1000704710B500F0C2FD006810BD10B5044666
:100B200000F0BCFD046010BD2DE9F0470D4699466C
:100B30009246044600F124080168880604D5E0695D
:100B400021F01001216000E00120A84201DD471BD7
:100B500000E00027A1697A1902EB0900081AA061D8
:100B60002078C00602D42046FFF70AFC002608E0E1
:100B7000D4E901211AF806009047206A401C761C2F
:100B800020624E45F4DB2078C0060AD52046FFF7E8
:100B9000F7FB06E0D4E9012130209047206A401C91
:100BA0002062381EA7F10107F4DC07E0D4E9012137
:100BB00018F805009047206A401C2062281EA5F105
:100BC0000105F3DC2046FFF7F1FB2078000602D593
:100BD0000220BDE8F0870120FBE770472DE9FF4FB9
:100BE0000C461E464FF0FF378BB0D2E90001DDF80E
:100BF00060800A908A46C1F30A5505B93D46002136
:100C000008464FF00000BAF1000F00F4400005DA8A
:100C100000EB80004FF4400101EA50004FEA905988
:100C2000B9F1010F00DDB9460A9850EA4A000ED02A
:100C300044F61050A5F2FF3545432F14B8F1000FCC
:100C40001ED07542291E1EDDC9F100021CE0B8F15C
:100C5000010F4FF0000001D0302103E0F24305E026
:100C60002154401CB042FBDB3046002200212154BD
:100C70000B99C1F80880C1E900200FB0BDE8F08FE2
:100C8000BD1B6D1CDEE74A4600DA694206A800F08B
:100C900051FF06AB93E8070003AB83E8070050461B
:100CA0000A9901F037FA8DE80700A0F500501F38C7
:100CB00000900398002D0ADD42F21F014A460844C5
:100CC000002303A90390684601F0E2FC09E0A0F5C7
:100CD00000504A461F38002303A90390684601F0DC
:100CE00001FD8DE807000004000C03D04FF0FF3039
:100CF000410800E01046B8F1000F03D00022009236
:100D000015461EE0751E05D400F0CCFC303262554D
:100D10006D1EF9D5B3460122084302D000227F1C84
:100D200004E02078302801D100227F1E002A099794
:100D300084D01DE0112D07DA00F0B4FC303262558A
:100D40006D1C50EA0102F5D1084302D00098C8B1E9
:100D50000EE00021681E05E0235C625C63542254AF
:100D6000401E491C8142F7DBAB46A81B401E099080
:100D7000002004F80B000B98099AC0F80880C0E91D
:100D8000002B7AE711264FF0000857E72DE9F04FC6
:100D900088460446D21D22F0070191B0D1E9000136
:100DA000CDE90A0106F076FA02460B98C00F01D091
:100DB0002D2007E02068810701D52B2002E02021AB
:100DC00001EAC000032A099001D0072A05DB034687
:100DD0004146204600F0B4FC0BE12078800601D5A6
:100DE000E06900E00620B8F1650F814606D0B8F151
:100DF000660F18D0B8F1670F70D131E00020B9F15B
:100E0000110F009001DB112301E009F101030AAA8F
:100E100001A90CA8FFF7E2FEDDE90C70002609F13C
:100E20000105834647E001204B4600904FF0004704
:100E30000AAA01A90CA8FFF7D1FEDDE90DB00C99B3
:100E40005D46002610B909F101000D18B9EB050047
:100E500003D4C0F1FF3609F10105A5EB09002BE031
:100E6000B9F1010F01DA4FF001090020B9F1110FBA
:100E70000090484601DD112300E003460AAA01A9BB
:100E80000CA8FFF7ABFEDDE90C704D46002683464B
:100E9000207800070AD4AB4500DA5D4601A8012D91
:100EA00004DD411911F8011C302907D04F4502DA41
:100EB00017F1040F04DA012082460FE06D1EEEE701
:100EC000002F02DCED1B3E4403E0781CA84200DD4D
:100ED0007D1CB81B00F1010A4FF000472078000785
:100EE00003D4AA4501DB4FF0FF3A0021B7F1004FD0
:100EF0000DF143088DF8431024D002202B23002F3E
:100F000001DA7F422D230A21021EA0F1010000DC3C
:100F10005FB197FBF1FC97FBF1F201FB1C7C1746DC
:100F20000CF1300C08F801CDEEE7A8F101000370D8
:100F30002188090501D5452100E06521A0F10108BE
:100F400000F8011C09980FA9A1EB0807FF1D00B1CB
:100F50000120411901EBEA70A1693844081A401ECA
:100F6000A0612078C00602D42046FFF709FA09984C
:100F700028B1D4E901219047206A401C20622078E2
:100F8000C00622D52046FFF7FBF91EE0002E04DB49
:100F9000B34502DD01A8805D00E03020D4E90121E5
:100FA0009047206A401C2062761CAAF101005FEA8B
:100FB000000A0AD100F06EFBC0680168405CD4E909
:100FC00001219047206A401C2062281EA5F10105DE
:100FD000DCDC07E0D4E9012118F8010B9047206A16
:100FE000401C2062381EA7F10107F3DC2046FFF702
:100FF000DDF9032011B041E601694A1C026108785D
:10100000704700B58FB0CDE9013100210591054948
:101010007944CDE9031011466846FFF769FA0FB02D
:1010200000BD0000E5FFFFFF0A6802F8010B0A603F
:10103000704710B5436913B1AFF3008001E0FFF7CB
:10104000C6F9012010BD127800F124010A700022B7
:101050004A700122EDE711684FF0FF32E9E7000026
:10106000074B70B50D467B44FFF7CBFF044628467F
:1010700000F0D2FD10B14FF0FF3070BD204670BDC2
:10108000F37900002DE9FF4F06468BB00878FF2862
:1010900006D0491C2D2805D000244FF0000908E097
:1010A00000200CE00124F8E709EB8903491C00EB60
:1010B00043090878FF28F7D114B1C9F1000081462F
:1010C000107800252C46AA4629462D2801D02B2829
:1010D00004D1521C2D2813D0002082468B46107854
:1010E000FF280FD04FF0000C0A21521CA5FB0178FD
:1010F00004FB018105FB0C11C5194BEB0104EEE764
:101100000120EAE7002108464FF00000BAF1000F85
:1011100002D000EB80004008C0F38157012F01DDB1
:101120004FF0FF370E9955EA040009EB01080BD088
:101130004FF0020918F5FA7F16DA4FEACA70002F4D
:10114000706008DD012007E04FEACA70C6E900B010
:101150000FB0BDE8F08F0020306000F09FFAC0F8BB
:1011600000901821084616E0B8F5FA7F18DD002F28
:1011700002DAF748784401E0F6487844D0E90010F4
:10118000C6E9001040EACA70706000F087FAC0F843
:101190000090142108460FB0BDE8F04F0DF05FB984
:1011A000002108464FF00000B8F10001099002DA72
:1011B000C7F1000200E03A4601DAC8F1000106A8D2
:1011C00000F0B8FC06AB93E8070003AB83E8070028
:1011D00044F23E005BEA04010090584604D144F218
:1011E0001E012C465D460091210C0904014306D1E5
:1011F0000099240444EA15442D041039009104F0A8
:101200007F41014306D10099240244EA15642D026E
:101210000839009104F07041014306D1009924017E
:1012200044EA15742D01091F009104F04041014367
:1012300006D10099A40044EA9574AD00891E00917E
:1012400004F00041084304D100986D196441401E28
:1012500000904FF001033A466846B8F1000FCDE91F
:10126000014503A902DD01F052FA01E001F025FA7F
:10127000BAF1000F04460D4601D084F0004400216D
:1012800008464FF00000099940F2FF77484010F0FF
:101290000C0F07D124F00040284303D0C4F30A50B8
:1012A000B84212D100F0FAF9C0F80090C4F30A5025
:1012B000B8420AD1A8487844D0E90010C6E9001025
:1012C00004F000410843706042E7C6E900543FE77C
:1012D0002DE9FF4F1F464FF0000A4FF0FF384546FB
:1012E00091B0D7E90146CDF83CA000F0D3F9C06831
:1012F0000168405C1090B96912986D1C8847396A82
:10130000814688470028F6D1B9F1FF3F0AD0002E68
:1013100024F4D06411DDB9F12B0F08D0B9F12D0FF1
:101320000BD102E0404615B013E744F48064B9697C
:1013300012986D1C8847761E8146600504A901D568
:101340002D2000E02B20002E01F1010B0DF13008C3
:101350008DF810003FDDB9F1690F08D0B9F1490FE0
:1013600005D0B9F16E0F02D0B9F14E0F1CD13B463A
:1013700001A8009580E85002DDE912126FF002002A
:101380000DF0FCF8C11CCED10EE0B96912986D1CAD
:10139000884781461398761E44F4007405600F98C0
:1013A000401C002E0F9016DDB9F1300FEDD0B9F1D1
:1013B000780F02D0B9F1580F0DD10F9801280AD13A
:1013C0003B46CDE90054DDE91212001F02960DF0F4
:1013D000D3F8C11CA7D1109989453ED144F08004AF
:1013E00006E01399681CAAF1010A44F4007408602D
:1013F000B9696D1C1298761E884730288146F0D056
:101400002BE01099894505D1200603D4761E44F0BF
:10141000800418E0484606F05CF808B3761E0DF12B
:1014200023018B4544F4007408D2A9F130000BF875
:10143000010B200607D5AAF1010003E0200602D423
:101440000AF101008246A00502D51399681C0860C4
:10145000B96912986D1C88478146002ED1DC53E093
:10146000002E51DDB9F1650F02D0B9F1450F4BD116
:10147000A00549D5B9696D1C1298761E24F44074F4
:101480008847002E81460CDD2B2804D0B9F12D0FA2
:1014900007D144F48074B96912986D1C8847761E90
:1014A0008146E00501D52D2100E02B2108F8011B24
:1014B000CDF8008021E0761E0DF13901884544F415
:1014C00000740CD2A9F1300010F0FF0088F8000081
:1014D00002D10099884509D908F1010806E0E00524
:1014E00001D51E4801E042F20F708246B969129898
:1014F0006D1C8847814613980560002E04DD484620
:1015000005F0E7FF0028D6D1F96912988847FF2037
:1015100053468BF8000088F8000000200A900B90DA
:1015200004AA0CA90AA8FFF7ADFDA00502D46FF02C
:101530000100F8E614F0240F12D0E0071CD138683F
:10154000DDE90A12031D3B600068C0E9001213E0E8
:10155000DCE80000CEE8000092E70000F1D8FFFFD1
:101560000AA9684605F044FFE00705D13868009AEB
:10157000011D3960006802602846D4E60268114403
:101580001378016018467047D1600549794451616C
:1015900004497944116200211161114600F010B92B
:1015A000EDFFFFFF99010000426842B1016811F8A8
:1015B000013B23B1521EC0E90012184670470121B9
:1015C000C160881E704742685AB1C368016843B958
:1015D00083688B4205D0491E521CC0E900120020CE
:1015E00070474FF0FF3070470FB4002300B589B04B
:1015F0000CA900910B99CB60214B7B440693214BA6
:101600007B44079304236FF00042CDE901321E4A68
:101610007A446B460892024600200CF0ABFF09B0FA
:101620005DF814FB70B506464FF0FF3015460C46CA
:10163000324686B00091CDE9010169460020049050
:1016400004A8FFF7D1FF02460498211825B108B17C
:10165000084600E020462860049800280DD0002AA3
:1016600002DD0098884208D03246081B6946009483
:10167000CDE9010404A8FFF7B7FF06B070BD000074
:10168000ABFFFFFFC3FFFFFF1B01000000487047D7
:10169000D42D002000487047F42D002000487047EA
:1016A000D42D002030B5B0F10A024FEA900E71F14E
:1016B00000034EEA817EB0EB0E0061EB91014FEA30
:1016C000101E4EEA017E10EB0E0041EB11114FEAA5
:1016D000102E4EEA016E10EB0E0041EB11214FEA85
:1016E000104E4EEA014E10EB0E0041EB1141401836
:1016F00041F100014FEAD00040EA41704FEAD101C8
:1017000010EB80054FEA810444EA907444EB010435
:101710006D1944EB0404521BA3414FF0000348BF72
:101720000A3200D530BD401C41F1000130BD10B57A
:101730000446FFF76FF90068005D00F0010010BD7E
:101740002DE9F0411F46044603260168072A01F4EB
:10175000006004DB08B116A505E016A503E008B19A
:1017600015A500E015A521F010002060A069C01E9D
:10177000A0610FB1401EA0612046FEF701FE4FB1EF
:10178000D4E9012138469047206A401C2062C01CE1
:10179000206206E0206AFAE7D4E9012115F8010B7E
:1017A0009047761EF8D22046FEF700FEBDE8F08195
:1017B0004E414E006E616E00494E4600696E6600F5
:1017C0002DE9F34F4FF0000A0C4656468DB001202C
:1017D0000C9001F10C000B9062690B98012190476D
:1017E000051E2DD0252D2CD0216A8847C0B16269F5
:1017F0000B9801219047216A88470028F7D1626938
:10180000411E0B98904700E0761CA1690D9888470F
:10181000216A88470028F7D1E1690D988847DBE7FE
:10182000A1690D988847A842074601D1761CD3E7E5
:10183000E1690D9888477F1C02D1BAF1000F6FD083
:101840006CE162690B9800273D46394690472A288B
:1018500004D162690B98012190470125DFF8D082FD
:1018600062690B9801219047A0F130010A290AD240
:101870004745E5DC07EB870100EB4107303FDFD44C
:1018800045F01005ECE7E90601D46FF000476C283D
:101890000AD04C2814D0682815D06A280DD0742896
:1018A0001CD07A281AD01DE062690B98012190475C
:1018B0006C2802D045F0040514E045F002050DE067
:1018C00045F020050AE062690B98012190476828DD
:1018D00002D045F0080505E045F4006562690B9803
:1018E00001219047C4E9015765283DD019DC5828EB
:1018F0007AD00CDC452837D004DC252826D04128B6
:101900009ED131E046282FD0472899D12CE05B2882
:1019100077D0612828D063287CD0642823D15AE06E
:10192000F7E06F2848D008DC66281DD067281BD058
:10193000692821D06E2816D127E0702845D0732859
:1019400068D0752847D078280DD14DE0A1690D9851
:101950008847252805463FF469AFE1690D98884717
:101960006D1C3FF46AAFD9E00D9923466A466FF0CB
:1019700001000CF0FFFDC6E045F0400023464FF0AB
:1019800000026060A80736D43EE0E8077FF447AF66
:101990002068011D21600068290501D506701BE73C
:1019A000290701D5068017E7A90703D5F117C0E974
:1019B000006111E706600FE745F0400023464FF055
:1019C00008026060A80716D41EE040F60E0125EA62
:1019D0000100606016E045F0400023464FF00A0227
:1019E0006060A80707D40FE045F040006060A807DA
:1019F00008D5234610220D996FF00100AFF3008047
:101A000081E007E0102223460D996FF00100AFF34B
:101A1000008078E04FF0000963284F46C8464B46E7
:101A2000CB4602D05B2807D039E02079C00601D42C
:101A30000120A060012732E06269D4F80CB00B9855
:101A4000012190475E2807D14FF00109494662699C
:101A5000D4F80CB00B989047216939B900210A4697
:101A600003AB43F82120491C0829FADBD8B32169CC
:101A700049B308F1010862690B98012190475D287C
:101A8000F4D1B9F1000F09D0002003A951F82020AA
:101A9000D24341F82020401C0828F7DB03AB206923
:101AA000002820794FEA40701ED05B462246CDF8D0
:101AB0000080CDE901970D9900286FF0010020DA30
:101AC000AFF300801FE0C11703AA00EBD1614B11F7
:101AD00021F01F0102EB8302411A136801208840A4
:101AE00003431360C7E719E00D99224600286FF001
:101AF0000100009702DAAFF3008004E0AFF300804A
:101B000001E0AFF3008000280ADA401C06D10C98EF
:101B100020B14FF0FF300FB0BDE8F08F5046FAE72C
:101B2000E90701D10AF1010A064400200C9053E6AE
:101B3000CCCCCC0C2DE9F047814616468AB035480E
:101B400078440DC88DE80D0032487844801C03AC01
:101B50000DC884E80D0041F69B300844372190FB06
:101B6000F1F290FBF1F5A5F1800501FB12041B3C9D
:101B700002D56442012000E00020DFF898A08046F2
:101B80000027FA44AAF1BE0A0EE0E0070AD0324666
:101B9000684607EB470101230AEB810100F0A2FD33
:101BA0008DE8070064107F1C002CEED1194F7F4494
:101BB000AE3F19E0E80715D007EB04100DF1180A45
:101BC00090E80E008AE80E00C068F04201D1981932
:101BD00008903246012306A903A800F083FD03AB59
:101BE00083E807006D10641C002DE3D14FF0010362
:101BF00032466946B8F1000F03A802D000F048FD54
:101C000001E000F06FFDC9E90001C9F808200AB041
:101C1000BDE8F087D0DE0000007B00F08000704758
:101C20007546FFF733FDAE4605006946534620F082
:101C30000700854618B020B5FEF73EFBBDE8204002
:101C40004FF000064FF000074FF000084FF0000B78
:101C500021F00701AC46ACE8C009ACE8C009ACE82B
:101C6000C009ACE8C0098D46704700002DE9FF4F60
:101C70001F464FF03C0987B04FF00042DDE91410D9
:101C800001F10108DDF858A002EA4050039000205D
:101C900005908346054604460490B969461E089897
:101CA0008847AAF1010A0290BAF1000F3BDD0298C1
:101CB0002E2815D0102100F01FFA00282EDB4FF03F
:101CC000010B0599014317D0B9F1000F0BDB4A4610
:101CD000C11700F0FEF905430C43A9F1040905E022
:101CE000012004900BE008B145F0010501200590AA
:101CF000049820B9361D02E0049800B1361FB96976
:101D0000089808F101088847BBF1000FAAF1010A01
:101D10000290C9D00999C1F80080C5E702987028DF
:101D200008D0502806D0F96908988847BBF1000F01
:101D300014D04FE0002002900120BBF1000F04906E
:101D400009D0B969089808F101088847AAF1010982
:101D5000B9F1000F07DCF969089888476FF00100B6
:101D60000BB0BDE8F08F2B2804D02D280CD14FF0FC
:101D7000FF300490B969089808F101088847A9F173
:101D80000109B9F1000FE6DD411CE4D00A2100F0A1
:101D9000B3F90028DFDB029908F1010801EB8101AA
:101DA00000EB41000290B969089888470A2100F0C9
:101DB000A3F9099AA9F10109B9F1000FC2F800804D
:101DC00001DD0028E7DAF969089888470499029844
:101DD00000FB016655EA040004D004F0404109000C
:101DE00002D006E0039898E0A40044EA9574AD00A0
:101DF000B61E04F00041080002D16D196441761E40
:101E0000159810F0240F03D04FF00B095C4803E045
:101E10004FF028096FF07D008246564507DAAAEB9D
:101E200006018944B9F1410F01DD4FF0410901205C
:101E30000021A9F1010200F04CF9024628400B46AE
:101E40002140084301D0012100E00021501E0291F1
:101E500043F1FF3128402140084301D0012000E038
:101E600000200299834651EA0B014FD00021084619
:101E70004FF00000039900F4400039B100EB8000FE
:101E80004FF4400100EBD07001EA6000801501289A
:101E900002DD4FF0FF3000E013D0401C36D0029836
:101EA00060B3BBF1000F0CD14A460120002100F0C5
:101EB00010F928402140084301D0012000E0002013
:101EC000E0B101204A46002100F003F90346401921
:101ED0000A4661412D1A8C4111D3B9F1400F09DD39
:101EE000159810F0240F02D0AAF1340603E0AAF1ED
:101EF000170600E0761C00254FF0004406E05B1E4C
:101F000042F1FF3220EA030521EA0204CAF101008E
:101F1000B04206DA1B490398084301900020009064
:101F20000EE0039AC4F3D321E80A0A43164940EAB3
:101F300044500A433146CDE90002684605F0BEFA36
:101F4000159810F0240F0BD01598C00715D13868DC
:101F5000DDE90012031D3B600068C0E900120CE0DF
:101F600002A8694605F044FA1598C00705D13868FB
:101F7000029A011D3960006802604046F0E60000E8
:101F800002FCFFFF0000F07F0000F03F2DE9FF4F53
:101F900092461D4685B04FF00041DDE9124BDDE968
:101FA00014727F1E01EA4B50414940F0FF4940EA5C
:101FB0000108002122F020004928049102D04E2877
:101FC00028D04CE03BA0012607C88DE80700A9698E
:101FD0000698641C88477F1E014606D41DF806003B
:101FE00018B121F0200181420BD0E9690698884799
:101FF000032E34D0082E32D06FF0010009B0BDE8B6
:10200000F08F761C032E01D0082EE0D1601CCAF898
:102010000000DCE7A9690698641C88477F1E2AD463
:1020200020F02000412826D1A9690698641C884721
:102030007F1E20D420F020004E281CD1A9690698CC
:10204000641C88477F1E48F4002849F48009CAF8B8
:10205000004001D4282806D0E969069888475FEA3D
:10206000CB7012D022E0A9690698641C88477F1EB5
:1020700001D4002803DAE96906988847BCE72928D3
:10208000F1D1641CCAF80040E9E71BF0240F07D027
:1020900028680499031D2B600068C0E9001805E05A
:1020A0002868021D2A600068C0F800902046A5E755
:1020B0000000F07F494E46494E4954590000000047
:1020C00010B50446AFF300802046BDE81040FEF78F
:1020D00093B8B2F120030AD5C2F1200301FA02F14C
:1020E00020FA03F300FA02F041EA0301704700FA14
:1020F00003F14FF0000070473A2800D2303820F04A
:102100002002412A01D3A2F13700884201D34FF0C7
:10211000FF3070475FEA400C08BF91F0000F4FEAB4
:102120008C234FEAC12243EA51514FEA1C5018BF99
:1021300000F5F0404FEA300018BF41F000415FEA7F
:102140006C5C00F02980BCF1FF3F08BF40F080408C
:102150007047130C06BF12044FF0100C4FF0000C28
:10216000130E04BF12020CF1080C130F04BF12016E
:102170000CF1040C930F04BF92000CF1020CD30F6E
:1021800004BF52000CF1010C11464FF00002A0F107
:102190001F00A0EB0C00704711F0004F08BF704704
:1021A00031F000413FF4D5AF0B0C06BF09044FF0EE
:1021B000100C4FF0000C0B0E04BF09020CF1080CC0
:1021C0000B0F04BF09010CF1040C8B0F04BF890035
:1021D0000CF1020CCB0F04BF49000CF1010CCCF147
:1021E0002003A0EB0C0022FA03F302FA0CF241EAFE
:1021F000030100F10100704720F07F4C80EA0300EA
:1022000023F07F47ACEB070303F57C5300F000405D
:1022100003F1FF032DE980494FEA154B09B44FEA5A
:10222000144325EA0B4E24EA03480FF2042606EB7A
:10223000132749083E785FEA320203FB0667C7F5B9
:10224000000707FB06F64FEA54374FEAD64606F179
:10225000020607FB066CCCF1005C4FEA1C472CEA37
:10226000074C07FB06F40CFB06F504EB15464FEA9A
:10227000961634BF00204FF000404FEAD13706FBDE
:1022800007FC4FEA1C4C0CFB0BF7D21B03FB0CF7B3
:1022900061EB07010CFB0EF7B0EB074072EB174246
:1022A0000CFB08F734BFA2EB0742B2EB074261EB2D
:1022B00017414FEA0C444FEA910706FB07FC4FEA2F
:1022C0001C4C0CFB0BF7B0EBC74072EB573203FB17
:1022D0000CF734BFA2EBC742B2EBC74261EB5731F8
:1022E0000CFB0EF7B0EBC70072EB57720CFB08F754
:1022F00034BFA2EBC702B2EBC70261EB5771039F79
:102300004FEA816141EA921104EBCC044FEAD137E4
:102310004FEA826206FB07FC42EA90124FEA8060B5
:102320004FEA1C4C0CFB0BF7D21B03FB0CF761EBC9
:1023300007010CFB0EF7B0EB074072EB17420CFBEA
:1023400008F734BFA2EB0742B2EB074261EB17413B
:102350004FEA8C554FEA910704EB9C2406FB07FCDF
:102360004FEA1C4C0CFB0BF7B0EBC74072EB57323B
:1023700003FB0CF734BFA2EBC742B2EBC74261EBE1
:1023800057310CFB0EF7B0EBC70072EB57720CFB2A
:1023900008F734BFA2EBC702B2EBC70261EB57717B
:1023A00015EB4C254FEA816141EA92114FEA8262B6
:1023B0004FEAD13742EA901206FB07FC44F10004D1
:1023C0004FEA80604FEA1C4C0CFB0BF7D21B03FB5F
:1023D0000CF761EB07010CFB0EF7B0EB074072EB5B
:1023E00017420CFB08F734BFA2EB0742B2EB0742DF
:1023F00061EB174115EB1C154FEA813141EA92411F
:102400004FEA823242EA90424FEA80304FEA0C763D
:1024100044F1000448EA03434EEA0B484FF0000E33
:10242000B2EB080C71EB030724BF624639464EEB52
:102430000E0E4FF0000B0018524149414BEB0B0BB5
:10244000B2EB080C71EB03077BF1000B24BF624673
:1024500039464EEB0E0E4FF0000B00185241494129
:102460004BEB0B0BB2EB080C71EB03077BF1000B92
:1024700024BF624639464EEB0E0E51EA020718BFE2
:1024800046F0010616EB0E7655F1000254F10001FC
:1024900003D5BDE88901BDE80088BDE88901BDE834
:1024A0000048B619524141EB0101A3F10103704705
:1024B00080807F7E7D7C7B7A797877767675747381
:1024C000727171706F6E6E6D6C6C6B6A6A69686840
:1024D000676666656464636362616160605F5F5ED6
:1024E0005E5D5D5C5C5B5B5A5A595958585757564C
:1024F00056555555545453535252525151505050B1
:102500004F4F4F4E4E4D4D4D4C4C4C4B4B4B4A4A02
:102510004A49494948484847474747464646454546
:10252000454444444443434343424242424141417F
:1025300046EA0646A3F570534FEA164646EA425667
:102540004FEAD22242EA415210B54FEAD121A3F11B
:10255000010300F02FF820F0004000F1020C00F021
:10256000004701EB00501146BCF5006F40EA070040
:1025700000D210BDBAF1000F0AD01CB503B44FF061
:1025800004004FF004014FF000000FBCBDE8104004
:102590004FF00001BBF1010FB9BF04484FF0FF310C
:1025A0000348002140EA070010BD00BFFFFFEF7F96
:1025B0000000F07F002B9C4630D477002BD01CB558
:1025C0004FEA370703B44FF010004FF01001BAF193
:1025D000000F06D0BCF1000FDCBF40F0080040F057
:1025E00008014FF000000FBCBDE810400BF1010BDB
:1025F000BBF1010F08BF5FEA170722BF12F101020A
:1026000011F101014FF0004143F1000300F00040DF
:1026100043EA00007047F9D35708D0E746EA064678
:1026200013F1400F4FEA16461FDD13F1200FDFBFF5
:1026300016430A46002120335B42BED0C3F1200777
:1026400046EA064602FA07F74FEA164646EA070642
:10265000C3F1200722FA03F201FA07F721FA03F186
:102660004FF0000342EA0702A7E746EA020646EAFD
:1026700006464FEA164646EA0106BCBF46EA06464B
:10268000360C4FF000034FF000024FF0000194E7CA
:102690002DE9804C9A46934670B491E8380007C8FB
:1026A00031EA400C48BF34EA430C03D5FFF7A4FDE0
:1026B000FFF780FFF0BCBDE8008C2DE9804C9A4606
:1026C000934670B491E8380007C831EA400C48BF1F
:1026D00034EA430C03D5FFF78FFDFFF729FFF0BC69
:1026E000BDE8008C2DE9804C9A46934670B491E881
:1026F000380007C810F0804F08BF13F0804F03D197
:1027000000F01AF8FFF756FFF0BCBDE8008C2DE989
:10271000804C9A46934670B491E8380007C810F090
:10272000804F08BF13F0804F03D100F005F8FFF78A
:10273000FFFEF0BCBDE8008C20F07F4780EA03007C
:1027400023F07F4C07EB0C03A3F57C5300F0004013
:10275000A3F1FE0392F0000F00F0B38095F0000F9C
:1027600000F077802DE901494FEA11404FEA144605
:1027700021EA004800FB06FC24EA064708FB06F6AF
:1027800007FB08F800FB07F718EB06484CEB164C64
:102790004FEA124B18EB07484FEA15464CEB17402F
:1027A00022EA0B4E0BFB06FC25EA06470EFB06F65B
:1027B00007FB0EFE0BFB07F71EEB064E4CEB164C11
:1027C0004FF000061EEB074E4CEB174B18EB0B08B7
:1027D00040F1000018EB0E0B58EB000840F1000030
:1027E0008F1A4FF000013CBFC943661B14BFB5EB05
:1027F000040C00213CBFC943F61B4FEA17444EEAC4
:102800008E0E27EA04454FEA1C4704FB07622CEAB8
:10281000074C05FB07F70CFB05F604FB0CFC16EB5D
:10282000074642EB174216EB0C4642EB1C421BEBF1
:10283000060658EB0202414146EA9E0601D5BDE874
:102840000189B619524141EB0101A3F10103BDE831
:1028500001894FEA14454FEA114724EA054621EA67
:10286000074C05FB07F406FB07F70CFB06F105FB1D
:102870000CFC11EB074144EB17444FEA124711EBF4
:102880000C4144EB1C4422EA074C05FB07F206FB13
:1028900007F70CFB06F605FB0CFC16EB074642EBB4
:1028A000174216EB0C4642EB1C456A1854F1000126
:1028B00048BF7047B619524141EB0101A3F1010332
:1028C000704795F0000F37D04FEA11424FEA144796
:1028D00021EA024624EA074C02FB07F106FB07F750
:1028E0000CFB06F402FB0CFC14EB074441EB174114
:1028F0004FEA154714EB0C4441EB1C4125EA074C09
:1029000002FB07F506FB07F70CFB06F602FB0CFCC7
:1029100016EB074645EB174516EB0C4645EB1C42FC
:10292000121951F1000148BF7047B619524141EBED
:102930000101A3F1010370474FEA14454FEA114723
:1029400024EA054621EA074C05FB07F106FB07F7D9
:102950000CFB06F24FF0000605FB0CFC12EB0742E5
:1029600041EB174112EB0C4251EB1C4148BF704741
:10297000921841EB0101A3F101037047F0B5012268
:10298000931E002400E032460719065D97F801E027
:1029900097F802C042EA060747EA0E0757EA0C0713
:1029A00003D05B1C641CEFD0EDE71944491E7F295E
:1029B00005DC012503E0C25C5C195B1E0255002B9F
:1029C000F9DC0DB141700CE0022D0AD1CA1701EB00
:1029D0005262802343EAE21322F07F0243708A1A94
:1029E00082704819401CF0BD70B50D460168044660
:1029F0000868C968884721688A690868462190473D
:102A000021680868496988472168012808680ED04C
:102A10008A6929469047216808684969884721687A
:102A200001280868096906D08847002070BD096937
:102A30008847012070BD8847022070BD10B504464C
:102A40000C4820610C48C4E900100C48A0600C48F8
:102A5000E0600C4860610C48A061D1E90001884742
:102A600061682046884720462269BDE81040102151
:102A700010470000E9290008932A00088D2A000861
:102A8000ED2A0008992A00089153000802690021E4
:102A9000104702690121104770B50E4601680446CF
:102AA0000868C968884721688A690868472190478B
:102AB000216808684969884721680128086811D099
:102AC000CA690021904721680546CA690868012142
:102AD0009047216800EB052508680969884735801B
:102AE000002070BD09698847012070BD026900217E
:102AF0001047FEE770B50646002400222146304606
:102B000002F0D5FE00250021304602F00CFF6D1CBE
:102B1000EDB2802DF7D3641CE4B2082CEDD370BD68
:102B20002DE9F04107464800801EC6B20024301946
:102B3000C1B20022384602F0BAFE00250021384614
:102B400002F0F1FE6D1CEDB2802DF7D3641CE4B2EF
:102B5000022CECD3BDE8F0812DE9F041804648001D
:102B6000801EC6B2D0000838C7B200243019C1B2E6
:102B70003A46404602F09BFE00250021404602F006
:102B8000D2FE6D1CEDB2082DF7D3641CE4B2022C0A
:102B9000ECD3BDE8F081000070B50024012000F006
:102BA00029F8134D04E0641CE4B2012005F04CFA4E
:102BB0000221284600F0C4FE012803D0642C10D264
:102BC000002407E0642CEED30BE0641CE4B2012087
:102BD00005F03AFA0221284600F0B2FE18B1642C42
:102BE00004D3012070BD642CEFD3FAE7002070BD40
:102BF000000801400E4900B58A6985B042F0040220
:102C00008A61896901F004010491012101280AD037
:102C1000019102910220039100906946054800F05D
:102C20009FFD05B000BD002001900290F2E700007A
:102C300000100240000801400E4800B5816985B0CF
:102C400041F0040181618069022100F004000490D8
:102C50000120CDE900100290032003906946064848
:102C600000F07EFD00F05CF805B05DF804EBFFF7C6
:102C700093BF000000100240000801402DE9F04120
:102C80000020194E05464006070E002404E0641C8F
:102C9000E4B2012005F0D8F90221304600F050FEE0
:102CA000012801D1642CF2D3002404E0641CE4B2B6
:102CB000012005F0C9F90221304600F041FE08B9B3
:102CC000642CF3D3282005F0BFF90221304600F030
:102CD00037FE012800D000206D1C3843EDB2082DCE
:102CE000D1D3BDE8F08100000008014070B5044672
:102CF00000F016F8FFF750FF08B1012070BD002565
:102D0000FFF7BCFF60556D1CEDB2052DF8D32078A0
:102D10006178E2780844A17800201144217970BDDF
:102D200010B50020FFF766FF0A4C00220221204662
:102D300000F013FE142005F071F901220221204653
:102D400000F00BFE1E2005F07FF9BDE810400120C9
:102D5000FFF750BF000801407047000070B5002425
:102D60000FA003F035FE4FF4FA75284605F056F92A
:102D700021460FA003F02CFE2B46002211A112A029
:102D800000F032F828B1214610A003F021FE012006
:102D900070BD641CE4B20A2CEAD3002070BD0000B0
:102DA00041547465737473746573740D0A00000084
:102DB0000D0A4154746573742025642E2E2E2E2E18
:102DC0002E0D0A004F4B0000415400004154746521
:102DD0007374204F4B7374617274206163686976F9
:102DE0006525640D0A0000002DE9F0411C4C0E46DB
:102DF0001F46B4F8001415466FF30E01A4F8001432
:102E0000014618A003F062FF56EA050025D0B8B2CB
:102E100005F004F9B4F800140020C1F30E01605469
:102E2000214612A003F0D4FDB4F800046FF30E00A5
:102E3000A4F80004B4F8000420F40040A4F800044E
:102E40002EB1314625B12046FDF70CFC28B92946A4
:102E50000348FDF707FC002800D00120BDE8F08101
:102E60008829002025730D0A00000000257300004A
:102E700000B585B008B1012200E0002206A1684635
:102E8000FDF768FA4FF4FA73002207A16846FFF7CE
:102E9000ABFF05B000BD000041542B4349504D55D8
:102EA000583D2564000000004F4B000010B54FF462
:102EB0007A7005F0B3F804A003F008FFBDE81040F5
:102EC0004FF4FA7005F0AAB82B2B2B0010B5FFF7C2
:102ED000EDFFBDE8104000F0E1B8000070B5154806
:102EE00086B0816941F0080181618069022500F0A6
:102EF000080004904FF48060CDE900050024032011
:102F0000CDE902400C4E6946304600F029FCA8028B
:102F1000CDE9000469463046029400F021FC01200E
:102F2000CDE9005069463046039500F019FC06B023
:102F300070BD000000100240000C014010B5FFF70A
:102F4000CDFF00F051FABDE8104000F0BFB800001E
:102F500000B59FB00B46024606A16846FDF7FAF998
:102F600040F6C413002208A16846FFF73DFF1FB0DA
:102F700000BD000041542B43574A41503D22257368
:102F8000222C2225732200004F4B0000F0B5B9B06F
:102F90000F4606461D461446642101A8FDF7CFFCE6
:102FA00016B1012E0BD103E03B4610A2009402E0C3
:102FB0003B460FA200940FA101A8FDF7CBF9052D08
:102FC00006D201AB2A460FA11AA8FDF7C3F904E007
:102FD00001AA11A11AA8FDF7BDF94FF47A7312A244
:102FE00015A11AA8FFF700FF39B0F0BD54435000F7
:102FF00055445000222573222C222573222C257340
:103000000000000041542B43495053544152543D59
:1030100025642C257300000041542B434950535420
:103020004152543D25730000414C524541592043C3
:103030004F4E4E45435400004F4B00004FF47A73FF
:1030400028B1012807D0022809D00020704706A225
:1030500008A109A006E004A206A10AA002E002A2BB
:1030600004A10BA0FFF7C0BE6E6F206368616E679E
:10307000650000004F4B000041542B43574D4F4417
:10308000453D310041542B43574D4F44453D32009F
:1030900041542B43574D4F44453D330000B59FB03D
:1030A00006A16846FDF756F940F6C413002206A1B2
:1030B0006846FFF799FE1FB000BD000041542B4346
:1030C00057514150000000004F4B000010B5064C16
:1030D00000220221204600F040FC20460122BDE8EB
:1030E0001040022100F039BC000C014070B557A01F
:1030F000FDF724F95D4C207810B154A003F01EFDBB
:10310000002509E06D1CEDB2294659A000F0CAF96E
:10311000022837D0032835D0FFF720FE0028F1D051
:10312000002556A0FDF70AF9207868B153A003F0F6
:1031300005FD09E06D1CEDB229465AA000F0B2F978
:1031400002281FD003281DD00220FFF777FF002898
:10315000F0D0002557A0FDF7F1F8207810B155A068
:1031600003F0ECFC5A4E5BA1307860B15CA00BE040
:103170006D1CEDB2294661A000F094F9022801D03F
:103180000328F0D170BD60A0FFF7E2FE0028EFD069
:10319000002560A0FDF7D2F8207868B15DA003F0AB
:1031A000CDFC09E06D1CEDB2294661A000F07AF972
:1031B0000228E7D00328E5D00020FFF759FE0028B9
:1031C000F0D000255DA0FDF7B9F8207868B15BA0CC
:1031D00003F0B4FC09E06D1CEDB229465FA000F0DD
:1031E00061F90228CED00328CCD005235FA261A1CB
:1031F0000020FFF7CBFE0028EDD0002561A0FDF7F1
:103200009DF8207868B15FA003F098FC09E06D1C80
:10321000EDB2294664A000F045F90228B2D0032897
:10322000B0D000F019F90028F1D063A0FDF786F8BE
:1032300067A0FDF783F8207828B15FA003F07EFC3B
:1032400063A003F07BFC002070BD0000E6ADA3E5A9
:103250009CA8E9858DE7BDAE2045535038323636FF
:10326000202E2E2E2E2E2E0D0A00000005010020ED
:10327000436967204154746573743A00E6ADA3E571
:103280009CA8E9858DE7BDAEE5B7A5E4BD9CE6A8A1
:10329000A1E5BC8F20535441202E2E2E2E2E2E0D14
:1032A0000A000000436967204E65744D6F64653AFB
:1032B00000000000E6ADA3E59CA8E8BF9EE68EA551
:1032C0002057694669202E2E2E2E2E2E0D0A000024
:1032D00004010020787831323334353600000000A4
:1032E000E9A1B9E3858BE3858BE79A84485541577B
:1032F0004549205036302050726F000043696720E6
:103300004A6F696E41503A006D46695F313136440B
:1033100031340000E7A681E6ADA2E5A49AE8BF9E9D
:10332000E68EA5202E2E2E2E2E2E0D0A0000000039
:10333000436967204D756C49643A0000E6ADA3E52A
:103340009CA8E8BF9EE68EA5205365727665722024
:103350002E2E2E2E2E2E0D0A00000000436967200F
:103360004C696E6B5365727665723A00313838334A
:103370000000000032303031303532302E78797A2A
:1033800000000000E8BF9BE585A5E9808FE4BCA0B4
:10339000E58F91E98081E6A8A1E5BC8F202E2E2E35
:1033A0002E2E2E0D0A00000043696720556E7661AF
:1033B000726E6973683A0000E9858DE7BDAE2045FD
:1033C00053503832363620E5AE8CE6AF950D0A0004
:1033D000E5BC80E5A78BE9808FE4BCA02E2E2E2EC5
:1033E0002E2E0D0A0000000038B51748C16941F4BF
:1033F0008021C161C069164C00F480200090134800
:1034000020604FF4E13060600020A0600C21E0609B
:10341000C4E90401A061E061204601F0A7FC00229C
:103420000421272000F038FB272000F027FB20682C
:10343000C16841F01001C1602046BDE8384001225A
:10344000044901F0A1BD0000001002400048004006
:103450008C2D00208401002010B54FF4FA7423460F
:10346000002207A107A0FFF7BFFC002807D02346D2
:10347000BDE8104007A202A107A0FFF7B5BC10BD30
:103480004F4B000041542B4349504D4F44453D3173
:10349000000000003E00000041542B4349505345BA
:1034A0004E440000F8B5224C0D460646012903D1D2
:1034B000A268032120469047012267693346032111
:1034C0001B48B8473046FDF72FF9401CC2B2022016
:1034D0000090A6692B4603211548B047154E307859
:1034E00040F6B837400710D5A2680321104890472E
:1034F0006469012210A303210D48A047384608F053
:10350000F5FA002030700220F8BD642D0ED9A268B3
:103510000321074890476469012209A30321044855
:10352000A047384608F0E2FA0320F8BD0020F8BDB5
:10353000B40300200601002063616E63656C000027
:10354000636F6E6669672074696D656F75740000DE
:10355000082000F0F9B8102000F0F6B810B5084CBB
:103560002068800602D5202000F0EEF82068400692
:1035700004D5BDE81040402000F0E6B810BD0000C2
:10358000140401401C4A08B51C49904207D18869BF
:1035900040F004008861886900F0040009E0184ADE
:1035A000904208D1886940F008008861886900F07D
:1035B0000800009008BD134A904207D1886940F086
:1035C00010008861886900F01000F2E70E4A90420E
:1035D00007D1886940F020008861886900F02000E8
:1035E000E7E70A4A9042E5D1886940F040008861E7
:1035F000886900F04000DCE700080140001002404C
:10360000000C01400010014000140140001801406E
:1036100072B6FEE710B590F821100022022905D0FD
:103620000421816380F82020012010BD01680B680F
:1036300023F00E030B6001680B6823F001030B609D
:1036400090F84030C46B012101FA03F3636080F805
:10365000211080F82020104610BD000010B590F811
:1036600021100024022903D00421816301243DE0BC
:1036700001680A6822F00E020A6001680A6822F0F6
:1036800001020A601A4A0168914201D1012121E038
:10369000174A1432914201D110211BE0144A2832FA
:1036A000914201D1891515E0114A3C32914201D174
:1036B00089140FE00E4A5032914202D14FF480310A
:1036C00008E00B4A6432914202D14FF4801101E0CC
:1036D0004FF08071064A083A5160012180F82110AC
:1036E000002180F82010416B01B18847204610BDB1
:1036F00008000240064810B54FF0FF31016100227A
:103700000261C160C26000F093F9002010BD0000AA
:10371000001002400A49082807D0102807D02028A6
:103720000AD040280AD0002002E0012000E0022058
:103730000870044801F01CB80320F9E70420F7E7FB
:1037400020010020E01F0020044910B50A68024251
:1037500002D00860FFF7DEFF10BD00001404014036
:103760002DE9F84FDFF8B8910024A9F1040B2346A6
:103770000F2709F1040AABF1040EC9E00125A540A9
:103780002A40AA427DD1674ED1F804C0ACEB0608AE
:10379000B44532D014DCBCF1030F3AD009DCBCF1E3
:1037A000000F2AD0BCF1010F1CD0BCF1020F31D1A7
:1037B0001DE0BCF1110F17D0BCF1120F2AD119E096
:1037C000B8F5881F19D006DCB8F5803F15D0B8F5DC
:1037D000801F1FD111E0B8F5001F0ED0B8F5041FEF
:1037E00018D10AE0CB6815E0CB681B1D12E0CB684E
:1037F00008330FE0CB680C330CE08B682BB1012B46
:103800004FF0080303D0456104E0042302E00561A2
:1038100000E00023FF2A01D8064601E000F104067B
:103820004FEA840501D9A5F12005D6F8008007FAF2
:1038300005FC28EA0C0803FA05F548EA0508C6F86D
:1038400000804D68ED0062D5374DAE6946F0010647
:10385000AE61AD6924F0030605F001050095334D16
:1038600006EB050CDCF80850A607360F07FA06F839
:1038700025EA0805DFF8B880404503D14FF000087D
:1038800017E044E0DFF8AC80404502D14FF001087A
:103890000FE0DFF8A480404502D14FF0020808E0B5
:1038A000DFF89880404502D14FF0030801E04FF067
:1038B000040808FA06F848EA0508CCF808804D68BC
:1038C000D9F80060ED024D4601D5164300E096435D
:1038D0002E604D68DAF80060AD02554601D51643FA
:1038E00000E096432E604D68DBF80060AD035D4656
:1038F00001D5164300E096432E604D68DEF8006067
:10390000ED03754601D5164300E096432E60641C16
:103910000D682A46E5407FF431AFBDE8F88F00001E
:103920000804014000001110001002400000014096
:1039300000080140000C014000100140001401404B
:103940008068084000D001207047C26821EA020365
:103950000A4043EA0241016170470AB101617047C0
:103960000904FBE7014880687047000094000020CC
:1039700002488168027811448160704794000020F9
:10398000074810B5016841F010010160032000F004
:10399000A3F80F2000F006F800F04CF8002010BD4E
:1039A0000020024030B505461C4887B0816941F4CB
:1039B00000618161806906A900F40060009001A89F
:1039C00000F0A0F900F0CEF91549164AB0FBF1F16C
:1039D0001548491E0260416040F2E7320021C0E90B
:1039E00003218160816100F079FE040012D10E484C
:1039F00000F0BEFE04000DD1192000F03FF8102D9C
:103A000007D200222946192000F046F80748056031
:103A100000E0012407B0204630BD00000010024045
:103A200040420F00002C01406C0300209800002051
:103A3000704700000F4808B5816941F001018161BC
:103A4000816901F001010091C16941F08051C161BA
:103A5000C069002200F0805000900F21901E00F0FD
:103A60001BF80548416821F0E06141F000714160B8
:103A700008BD00000010024000000140002809DBE2
:103A800000F01F02012191404009800000F1E02078
:103A9000C0F8001170470000F0B40E4B1B680C46D4
:103AA000C3F30223C3F10705042D00D90425191D12
:103AB000072901D2002300E0DB1E012606FA05F1EA
:103AC000491E214099409E40761E16403143F0BC6D
:103AD00003F0F4BB0CED00E0064900F007020868B3
:103AE0004FF6FF03184040EA0220034A10430860E3
:103AF000704700000CED00E00000FA052DE9F047EA
:103B00000F46050061D0434E306800F00700B84210
:103B100009D2306820F0070038433060306800F088
:103B20000700B84251D128683B4C810712D54007A5
:103B300003D5606840F4E06060602878000703D532
:103B4000606840F4605060606068A96820F0F00030
:103B5000084360602878C00728D06868012810D022
:103B60002168022810D0890700292EDA616821F027
:103B7000030101436160FFF7F5FE804641F2883999
:103B80000DE021688903EFE78901EDE7FFF7EAFE21
:103B9000A0EB0801494502D90320BDE8F087606821
:103BA000696800F00C00B0EB810FEFD1306800F0D5
:103BB0000700B8420BD9306820F007003843306066
:103BC000306800F00700B84201D00120E5E728780E
:103BD000400705D56068E96820F4E060084360604C
:103BE0002878000706D56068296920F4605040EA0B
:103BF000C100606000F0C6F86168084AC1F30311B3
:103C0000515CC8400649086006480068FFF7CAFED4
:103C10000020C2E70020024000100240C2E5000878
:103C2000A0000020980000202DE9F041FFF79AFE47
:103C3000304C0546206840F00100206005E000BFE0
:103C4000FFF790FE401B022843D820688007F7D575
:103C5000206820F0F80040F080002060FFF782FE2E
:103C600000250646656041F2883704E0FFF77AFEDA
:103C7000801BB8422DD8606810F00C0FF6D11F4998
:103C80001D4808601E480068FFF78CFE10B1012037
:103C9000BDE8F081FFF766FE0646206820F08070E0
:103CA000206004E0FFF75EFE801B022811D8206828
:103CB0008001F7D46560FFF755FE0646206820F4C2
:103CC0001020206007E000BFFFF74CFE801B642837
:103CD00001D90320DCE720688003F5D4206820F4B4
:103CE00080202060606A40F080706062A5600020E3
:103CF000CEE700000010024000127A00A000002071
:103D0000980000200F2202600C4A536803F003035E
:103D10004360536803F0F0038360536803F4E06387
:103D2000C36052684FF4E06303EAD20202610448C0
:103D3000006800F0070008607047000000100240B3
:103D4000002002400448054900684968044AC1F35C
:103D50000221515CC8407047A000002000100240C2
:103D6000D2E500080448054900684968044AC1F3DF
:103D7000C221515CC8407047A000002000100240E2
:103D8000D2E500080E4A51680E4801F00C03042BDE
:103D900011D0082B0FD10C48C1F38343C903C05C79
:103DA0000AD55168084AC1F34041921E515C054A48
:103DB0005043B0FBF1F0704704494843704700009E
:103DC0000010024000127A00B2E5000800093D0030
:103DD0002DE9F84F040070D02078C04DC00749D0BD
:103DE0006868C0F38100012807D06868C0F38100CB
:103DF000022809D16868C00306D52868800339D530
:103E000060680028E7D035E06068B0F5803F0BD0EF
:103E100010B1B0F5A02F11D0286820F480302860B0
:103E2000286820F4802002E0286840F48030286070
:103E3000606890B1FFF796FD06460AE0286840F4F6
:103E400080202860F0E700BFFFF78CFD801B64280E
:103E500073D828688003F7D50CE0FFF783FD06468A
:103E600005E000BFFFF77EFD801B6428F0D82868BE
:103E70008003F7D420789A4E80074FF001094FF065
:103E8000000839D5686810F00C0F07D06868C0F3D7
:103E90008100022809D16868C00306D42868800719
:103EA00014D52069012808D110E02069B0B1C6F806
:103EB0000090FFF757FD074605E00AE1FFF752FDC6
:103EC000C01B0228C4D828688007F7D52868616914
:103ED00020F0F80040EAC10028600DE0C6F800803C
:103EE000FFF740FD074604E0FFF73CFDC01B02283A
:103EF00023D828688007F7D4207800072CD5794884
:103F0000A169D9B1C0F80090FFF72CFD074604E085
:103F1000FFF728FDC01B02280FD8686A8007F7D575
:103F200071484FF4FA510068B0FBF1F0009000BF07
:103F30000098411E0091FAD20EE080E0C0F80080A7
:103F4000FFF710FD074604E0FFF70CFDC01B022839
:103F500075D8686A8007F7D42078400760D5E8698B
:103F60000027C00008D4E86940F08050E861E869A3
:103F7000012700F0805000905C480168C90513D407
:103F80000168834641F480710160FFF7EBFC8246D3
:103F900006E000BFFFF7E6FCA0EB0A0064284ED85D
:103FA000DBF80000C005F5D5E06801280AD008B1AB
:103FB000052813D0286A20F001002862286A20F022
:103FC000040002E0286A40F001002862E06841F243
:103FD000883B98B1FFF7C6FC82460BE0286A40F0A8
:103FE00004002862EEE700BFFFF7BCFCA0EB0A016B
:103FF00059455AD8286A8007F6D50CE0FFF7B2FC7D
:10400000824605E0FFF7AEFCA0EB0A0159454CD80B
:10401000286A8007F6D41FB1E86920F08050E86173
:10402000E06988B36968C1F38101022944D002289C
:10403000C6F8608004D0FFF795FC044638E034E011
:10404000FFF790FC074604E0FFF78CFCC01B02283A
:104050002BD828688001F7D4206AB0F5803F05D1BD
:104060006868A16820F4003008436860D4E908015A
:104070000843696821F4741108436860C6F86090C9
:10408000FFF770FC044606E025E000BFFFF76AFC7E
:10409000001B022809D828688001F7D51BE000BF63
:1040A000FFF760FC001B022802D90320BDE8F88F4F
:1040B00028688001F4D40EE00128F7D06868226AED
:1040C00000F48031914204D1616A00F4701088429A
:1040D00001D00120EAE70020E8E7000000100240DC
:1040E0000000424280044242A000002000700040D4
:1040F00070B5040009D0606A002540B12561656192
:10410000A56294F8510040B10CE0012070BD6068D8
:10411000B0F5827FF4D0E561F2E784F85050204694
:1041200000F03FF8022084F851002068016821F077
:1041300040010160A088218900F4827001F40441EB
:104140000843A18901F400610843217C01F00201C8
:104150000843217D01F001010843218B01F4007126
:104160000843217F01F03801084394F8201001F042
:1041700080010843218D01F4005108432168086043
:10418000A069042101EA1040216848602068C169E3
:1041900021F40061C1616565012084F851000020AF
:1041A00070BD70472DE9F84F044690F851009846CD
:1041B00016460F460025012801D0022598E06068C8
:1041C0004FF0040BB0F5827F01D1A068F8B194F8EC
:1041D0005000012826D04FF0010984F85090FFF7D5
:1041E000C1FB8246002F7FD0002E7DD084F851B0D5
:1041F00000206065A763A687E6872063A086E08627
:1042000020646064A068B0F5004F0DD016E084F81B
:1042100051B013460A462046CDF8008000F024F93C
:10422000BDE8F88F0220FBE72068016821F040011B
:1042300001602068016821F4804101602068016804
:10424000490603D4016841F040010160E068D8B13B
:104250003BE020688168C90709D0007BA16B08702A
:10426000A06B401CA063E08F401EE0870CE0FFF7CE
:1042700079FBA0EB0A01414503D3B8F1FF3F03D01E
:1042800006E0B8F1000F03D0E08F0028E1D11FE075
:1042900003252BE020688168C90709D0C068A16B9D
:1042A0000880A06B801CA063E08F401EE0870CE0BC
:1042B000FFF758FBA0EB0A01414503D3B8F1FF3FDC
:1042C00003D0E5E7B8F1000FE2D0E08F0028E1D19C
:1042D00052464146204601F065FC08B12020606549
:1042E000606D00E000E008B1012501E084F8519024
:1042F000002084F85000284692E72DE9F84F044644
:1043000090F850000026984615468A4601280CD0A1
:10431000012784F85070FFF725FB814694F851007F
:10432000B346012804D002269AE00220BDE8F88FA7
:10433000BAF1000F6FD0002D6DD0032084F851002A
:10434000C4F854B0C4F830A0A586E586C4F838B0E7
:10435000A4F83CB0A4F83EB0C4F844B0C4F840B0EF
:10436000A068B0F5004F09D12068016821F0400134
:1043700001602068016841F48041016020680168A3
:10438000490603D4016841F040010160E068B0F5DE
:10439000006F606803D058B3012D29D049E008B1FF
:1043A000012D1FD1206B21680088C86006E02068BD
:1043B0008168890709D5216B0988C160206B801C41
:1043C0002063E08E401EE0860CE0FFF7CBFAA0EB06
:1043D0000901414503D3B8F1FF3F03D006E0B8F12E
:1043E000000F03D0E08E0028E1D125E0032635E060
:1043F000206B21680078087306E0206881688907CF
:104400000AD5216B09780173206B401C2063E08E74
:10441000401EE0860DE01FE0FFF7A4FAA0EB0901C3
:10442000414503D3B8F1FF3F03D0DFE7B8F1000FF8
:10443000DCD0E08E0028E0D14A464146204601F01B
:10444000DFFB08B120206065A06818B92068C1684A
:1044500080680090606D08B1012601E084F8517019
:1044600084F850B0304661E72DE9FF4F81B0044633
:1044700090F8500000260E9F1D4693464FF001090C
:1044800001280FD04FF0010A84F850A0FFF76AFA14
:10449000804694F85100616801280DD0B1F5827F03
:1044A00008D103E0022005B0BDE8F08FA16809B98A
:1044B000042801D00226C9E00298002865D0BBF18B
:1044C000000FFBD0002DF9D094F85100042802D041
:1044D000052084F8510000206065C4F838B0E587F5
:1044E000A58702992163E586A5862064606420681B
:1044F0000168490603D4016841F040010160E068A9
:10450000B0F5006F606803D0F0B3012D47D081E0B3
:1045100008B1012D3CD1206B21680088C860206B58
:10452000801C2063E08E401EE08631E020688168B8
:1045300089070FD5E18E69B1B9F1010F0AD1216B5D
:104540000988C160206B801C2063E08E401EE086DD
:104550004FF0000920688168C9070CD0E18F51B184
:10456000C068A16B0880A06B801CA063E08F401E18
:10457000E0874FF00109FFF7F5F9A0EB0800B8421A
:1045800006D3781C04D001E009E05BE003265BE081
:10459000E08E0028CAD1E08F0028C7D140E0206B10
:1045A000216800780873206B401C2063E08E401E59
:1045B000E0862FE02068816889070FD5E18E69B118
:1045C000B9F1010F0AD1216B09780173206B401CEE
:1045D0002063E08E401EE0864FF00009206881686D
:1045E000C9070CD0E18F51B1C068A16B0870A06BF6
:1045F000401CA063E08F401EE0874FF00109FFF7E9
:10460000B1F9A0EB0800B84202D3781C02D0BAE797
:10461000002FB8D0E08E0028CCD1E08F0028C9D17F
:1046200042463946204601F0EBFA18B10126202017
:1046300060650BE0A06818B92068C16880680090C8
:10464000606D08B1012601E084F851A0002084F8D3
:104650005000304627E74FF0E0210428086903D0D6
:1046600020F004000861704740F00400FAE770474A
:104670007047000070B590F83C20012A26D0012434
:1046800080F83C40022280F83D2003685A689D680B
:1046900022F070060A6832435A600D4B02689A4253
:1046A00008D0B2F1804F05D00A4B9A4202D00A4B93
:1046B0009A4204D1496825F080031943916080F83B
:1046C0003D40002180F83C10084670BD022070BDBE
:1046D000002C0140000400400008004010B5040018
:1046E00003D094F83D0010B107E0012010BD002078
:1046F00084F83C00204600F01FF8022084F83D00BA
:10470000211D206801F078FF012084F8460084F81C
:104710003E0084F83F0084F8400084F8410084F8AB
:10472000420084F8430084F8440084F8450084F88B
:104730003D00002010BD000008B50068B0F1804FBA
:1047400012D10A48C16941F00101C161C06900226A
:1047500000F00100009011461C20FFF79DF9BDE814
:1047600008401C20FFF78AB908BD00000010024075
:1047700090F83D10012901D001207047022180F8F6
:104780003D100168CA6842F00102CA6000680B4926
:10479000884208D0B0F1804F05D00949884202D044
:1047A0000849884204D1816801F00701062903D035
:1047B000016841F00101016000207047002C0140B8
:1047C00000040040000800400168CA6822F00102AD
:1047D000CA6001680A6A41F211131A4207D10A6AD3
:1047E0009B101A4203D10A6822F001020A600121DB
:1047F00080F83D100020704770B5044690F83C00EA
:104800000025012817D0012684F83C60022084F896
:104810003D002068826822F0770222F47F428260A5
:104820000868502838D00DDC20284FD005DC90B324
:10483000102811D14AE0022070BD302846D040280F
:104840000AD13BE060282FD070280DD0B0F5805FF2
:1048500003D0B0F5005F12D0012584F83D60002040
:1048600084F83C00284670BDCB68D1E9012120685E
:1048700001F0F8FE2068816841F0770109E0CB681B
:10488000D1E90121206801F0EDFE2068816841F442
:1048900080418160E1E719E0CA684968206801F059
:1048A000F3FE5021206806E0CA684968206801F0DC
:1048B000FCFE6021206801F0DFFECEE7CA6849688F
:1048C000206801F0E1FE40212068F4E722680146FB
:1048D0001046F0E7704770B50446006801694FF074
:1048E0000005C943890715D4C168C943890711D494
:1048F000E91E016101202077206880698007204639
:1049000002D0FFF7E7FF04E000F098F8204600F03F
:1049100096F8257720680169C943490717D4C1680B
:10492000C943490713D46FF00401016102202077C5
:104930002068806910F4407F204602D0FFF7CAFF4C
:1049400004E000F07BF8204600F079F82577206835
:104950000169C943090716D4C168C943090712D4BC
:104960006FF008010161042020772068C06980078A
:10497000204602D0FFF7AEFF04E000F05FF82046CB
:1049800000F05DF8257720680169C943C90617D48E
:10499000C168C943C90613D46FF010010161082032
:1049A00020772068C06910F4407F204602D0FFF7CE
:1049B00091FF04E000F042F8204600F040F825772F
:1049C00020680169C943C90708D1C168C943C9073B
:1049D00004D1891E0161204600F032F82068016987
:1049E000C943090609D4C168C943090605D46FF053
:1049F000800101612046FFF73AFE20680169C94342
:104A0000490609D4C168C943490605D46FF040017D
:104A10000161204600F070F820680169C9438906E9
:104A20000BD4C168C943890607D46FF02001016126
:104A30002046BDE87040FFF71BBE70BD7047704751
:104A400070B500682749884203D1BDE87040FEF781
:104A50008FBFB0F1804F16D12348254C254D0178EA
:104A60002248012910D002291FD003292FD0042960
:104A700009D14021FEF764FF012804D12068417864
:104A800041F00301417070BD0821FEF759FF012874
:104A9000F9D12068417841F0040141702878C007BD
:104AA000F1D0287840F002000FE01021FEF748FF17
:104AB0000128E8D12068417841F008014170287848
:104AC000C007E0D0287840F00400287070BD202195
:104AD000FEF736FF0128F9D12068417841F0010145
:104AE000D0E70000002C014020010020000C014014
:104AF0000C0100200601002070477047704700003D
:104B0000F8B5016804460868CA684B6910F00F0FD1
:104B10004FF0000559D003F0010602F490773743B7
:104B200065D0C10705D0D10503D5616C41F0010105
:104B30006164410705D5D90703D0616C41F00201DA
:104B40006164810705D5D90703D0616C41F0040188
:104B50006164010707D502F02001314303D0616C85
:104B600041F008016164616C00293AD0800604D5E7
:104B7000900602D5204601F00FFE20684069616C66
:104B8000C0F38010090700D460B3204601F0A7FDF0
:104B900020684069400621D52068143050E8001F85
:104BA00021F0400140E80012002AF5D1E06BA8B1E5
:104BB0006D494163E06BFEF751FD002811D0E06BB9
:104BC000416B01B0BDE8F040084783060FD593065E
:104BD0000DD52046BDE8F84001F0DEBD2046FFF7C8
:104BE0008DFFF8BD2046FFF789FF6564F8BD266B91
:104BF0002023012E7CD1C6067AD5D60678D5086842
:104C00004868009048694FF00206400640D5E16BC5
:104C1000086840680004000CE8D0A28D8242E5D903
:104C2000E085886920282DD020680C3050E8001FCE
:104C300021F4807140E80012002AF5D12068143078
:104C400050E8001F21F0010140E80012002AF5D1D0
:104C50002068143050E8001F21F0400140E80012A5
:104C6000002AF5D184F84230256320680C3050E8E2
:104C7000001F21F0100140E80012002AF5D1E06B7E
:104C8000FEF7C8FC6663A08DE18D401A81B22AE070
:104C9000A08DE18D401A81B2E08D0028A6D00029B8
:104CA000A4D022680C3252E8000F20F4907042E841
:104CB0000007002FF5D12068143050E8002F22F0B3
:104CC000010240E80027002FF5D184F84230256327
:104CD00020680C3050E8002F22F0100240E800233A
:104CE000002BF5D166632046FFF707FFF8BDFFE70D
:104CF00005062BD5150629D594F841002128F5D1B4
:104D0000A068B0F5805F01D12069B0B1206A411C74
:104D10002162216800784860E08C401E0004000C8D
:104D2000E084E3D12068C16821F08001C16020687F
:104D3000C16841F04001C160D8E7206A0088C0F333
:104D400008004860206A801C2062E5E74006CDD557
:104D50005006CBD5CA68204622F04002CA6084F8CB
:104D6000413000F0A4F9C1E7CF66000870B5040037
:104D700004D094F84100002510B106E0012070BD78
:104D800084F84050204600F023F8242084F84100A5
:104D90002068C16821F40051C160204601F05EFD29
:104DA0002068016921F4904101612068416921F086
:104DB0002A0141612068C16841F40051C160656405
:104DC000202084F8410084F842006563002070BD13
:104DD000F0B585B000240094019402940394036814
:104DE000384F022038490322384D4602BB4228D1B1
:104DF0008B6943F480438B618B6903F48043049394
:104E00008B6943F004038B618969039201F004010B
:104E100004910102CDE9001069462846FEF7A0FC86
:104E2000CDE90064694628460294FEF799FC002209
:104E300005212520FEF730FE2520FEF71FFE05B0D8
:104E4000F0BD234FBB4219D1CB6943F40033CB6192
:104E5000CB6903F4003304938B6943F004038B6143
:104E60008969039201F0040104910421CDE9001045
:104E700069462846FEF774FC08201BE0154DAB423E
:104E8000DDD1CB6943F48023CB61CB6903F480236C
:104E900004938B6943F008038B6189690E4D01F01F
:104EA0000801CDE90321CDE9006069462846FEF7F7
:104EB00057FCE814CDE90004694628460294FEF741
:104EC0004FFCBCE7003801400010024000080140E0
:104ED0000044004000480040000C01402DE9F84328
:104EE000044690F84200994616460D46202802D006
:104EF0000220BDE8F883ADB1A6B100206064222194
:104F000084F842102063FEF72DFDA6858046E685D5
:104F1000A0684FF48057B84201D1206920B12E46D5
:104F2000002526E00120E4E7002622E04346002297
:104F300020212046CDF8009001F007FD08B10320A4
:104F4000D7E726B1A068B8421BD038B108E0206886
:104F50004068C0F3080025F8020B07E0206980B123
:104F60002068406800F07F0006F8010BE08D401ECD
:104F7000E085E08D0028D9D1202084F8420000206F
:104F8000B7E720684068EFE790F84230202B01D067
:104F90000220704721B11AB10023036301F0BABCAB
:104FA0000120704730B400681449884223D0144966
:104FB000884220D0134988421DD1134802781348F3
:104FC000B0F8001440F2FF33C1F30E0199420CD245
:104FD000B0F80014B0F80034C1F30E014418491CB5
:104FE00061F30E03A0F80034227030BC01220649A0
:104FF0000748FFF7C9BF30BC7047000000380140C8
:10500000004400400048004084010020882900201E
:105010008C2D00202DE9F843044690F841001F46EE
:1050200016460D46202802D00220BDE8F8837DB147
:1050300076B100206064212084F84100FEF792FCE4
:10504000A6848046E684A068B0F5805F02D003E0C5
:105050000120EAE7206910B12E4600250EE0002667
:105060000CE08021204601F070FCA0B9AEB116F82A
:10507000010B21684860E08C401EE084E08C4346D0
:105080004FF0000200970028EBD14FF0400120467E
:1050900001F05BFC30B10320C7E735F8020BC0F329
:1050A0000800E6E7202084F841000020BDE77047B3
:1050B000FEE710B50446002100F0D1F8012120469A
:1050C00000F0C5F8022002F0BFFF0021204600F0EA
:1050D000BEF80121204600F0C2F8BDE810400220D1
:1050E00002F0B2BF1FB504460068FEF74BFAA06895
:1050F000FEF748FAA088A18908430090112001908A
:105100000120039069462068FEF72AFB6946A068E3
:10511000FEF726FB482002F069FF0121204600F03F
:1051200096F80121204600F09AF81FBD10B50446FC
:10513000012100F094F80121204600F088F80220B7
:1051400002F082FF0021204600F081F8BDE8104007
:10515000022002F079BF2DE9F04100240F460646F7
:1051600025466006040E0121304600F070F802204A
:1051700002F06AFFB189B068FEF7E2FB012801D1B5
:10518000641CE4B20021304600F061F8012002F016
:105190005BFF6D1CEDB2082DE3D3304627B1FFF75E
:1051A000C5FF2046BDE8F081FFF783FFF9E770B542
:1051B0000D4606460024E909304600F050F802206A
:1051C00002F042FF0121304600F041F8022002F0D7
:1051D0003BFF0021304600F03AF86806641C050EDB
:1051E000E4B2082CE7D33046BDE87040012100F05E
:1051F00036B810B50446012100F031F801212046EF
:1052000000F025F8022002F01FFF0021204600F0E8
:1052100026F8022002F018FF2046BDE810400021C9
:1052200000F015B810B50446002100F018F802206F
:1052300002F00AFF0121204600F009F8022002F0E6
:1052400003FF2046BDE81040012100F008B80A0025
:105250008188036800D001221846FEF77EBB0A0051
:105260008189836800D001221846FEF776BB70B5AD
:10527000054600240121FFF7F2FF022002F0E4FEC0
:1052800001212846FFF7E3FF022002F0DDFEA98995
:10529000A868FEF755FB012800D10124002128460B
:1052A000FFF7D5FF022002F0CFFE204670BD10B5FB
:1052B000044600224FF47A700021491C8142FCD33D
:1052C000521C8242F8D32168D1E900018847AE21FF
:1052D000204600F000FBD521204600F0FCFA80219A
:1052E000204600F0F8FAA821204600F0F4FA3F2109
:1052F000204600F0F0FAD321204600F0ECFA00211D
:10530000204600F0E8FA4021204600F0E4FAA1210E
:10531000204600F0E0FAC821204600F0DCFADA214D
:10532000204600F0D8FA1221204600F0D4FA81215C
:10533000204600F0D0FACF21204600F0CCFAD92147
:10534000204600F0C8FAF121204600F0C4FADB2123
:10535000204600F0C0FA3021204600F0BCFAA4211B
:10536000204600F0B8FAA621204600F0B4FA8D21BC
:10537000204600F0B0FA1421204600F0ACFAAF212C
:10538000204600F0A8FA2046BDE81040FDF7B2BB69
:1053900038B50C460021ADF80010426969469047C7
:1053A000BDF8000008F006FF024908F0EDFD20609E
:1053B00038BD0000CDCC8C3F2DE9F74F8EB00CA945
:1053C00002A8CDE900010BAB03AA09A907A802F0C6
:1053D000A5FF00287ED1BDF80800C0057AD5039846
:1053E00008F0D0FE6FF01D04214609F09DF88246BA
:1053F000049808F0C7FE214609F096F88146059802
:1054000008F0C0FE214609F08FF88046069808F0A3
:10541000B9FE214609F088F805460121504609F0F9
:1054200083F80646414608F0D9FE04464FF0404155
:10543000484608F0D3FE0746294608F0CFFE21462D
:1054400008F03AFD08F00CFD02F0CEF84FF0663B94
:105450005A463F4B08F0F4F907F0EEFE0E9908604B
:105460000121404609F060F84146009008F0B6FE80
:1054700004463846494608F0B1FE214608F07AFF56
:105480004FF07E5108F018FD08F0EAFC07460C4684
:105490003046494608F0A2FE06462946009808F024
:1054A0009DFE314608F008FD08F0DAFC3A46234636
:1054B00002F0E2FA5A46264B08F0C2F907F0BCFEA9
:1054C0000F9908602946084608F088FE07464146BD
:1054D000084600E039E008F081FE064649460846E5
:1054E00008F07CFE04465146084608F077FE214647
:1054F00008F0E2FC314608F03DFF394608F03AFF7B
:1055000008F0AEFC06460C462946504608F066FEFA
:1055100005464146484608F061FE294608F0CCFCA5
:10552000012109F001F808F09BFC3246234602F005
:10553000A3FA5A46064B08F083F907F07DFE10994E
:105540000860002011B0BDE8F08F0120FAE70000EC
:1055500066A64C402DE9F04705460E4600244FF460
:10556000FA7002F05BFDDFF81481B8F80004000463
:105570007ED5102D13D2DFE805F0120812081208AC
:1055800008120A1208120C12120E042407E0052455
:1055900005E0022403E0394801F026FCC4B24FF4D0
:1055A000806A51463046FBF7A8F922463349304617
:1055B000FBF724F90F2D49D130780009032845D194
:1055C000204600F089FB30444578204600F084FBFB
:1055D000305C2B4C45EA002530780226C0F34100B0
:1055E0004FF00409012802D002280BD02EE000233E
:1055F0001A461946042000F003FD20706670280A40
:10560000A0701EE000231A461946052000F0F8FCA1
:10561000207066702F0AA770E5704946184800F0A0
:1056200043F818490520FFF795FF642002F0F6FCC7
:1056300000231A461946072000F0E2FC207066702D
:10564000A770E57049460E4800F02EF8B8F800142F
:105650006FF30E01A8F80014B8F8001421F400410B
:10566000A8F8001451460548FBF747F9002000E070
:1056700001E0BDE8F0874FF0FF30F8E7882900200F
:1056800028210020282500204FF4FA6405490F2026
:10569000FFF760FF08B900F06FF9204606F026FA20
:1056A000F4E70000282500202DE9F0410D460646CC
:1056B00000244FF47A7706E031193B460122064870
:1056C000FFF7A8FC641CAC42F6DB3046BDE8F041B5
:1056D0004FF48061FBF711B98C2D00201CB500211F
:1056E0000120CDE900010B46802206A1084807F001
:1056F0004BFCC0B2012804D1BDE81C4005A0FAF75C
:105700001DBE1CBD696E69745461736B000000009E
:1057100099900008696E69745461736B20637265B7
:105720006174696F6E207375636365737366756CFE
:105730000D0A00002DE9F04186B0002424480094B1
:10574000019402940394816941F01001816181699F
:1057500001F010010491816941F0200181618169AA
:1057600001F020010491816941F0040181618169A6
:1057700001F004010491816941F0080181618069AF
:10578000DFF8508000F008004FF4804504900022BC
:1057900029464046FEF7E1F80122570339464046C4
:1057A000FEF7DBF80095022601250396CDE90154AA
:1057B00069464046FDF7D4FF00970396CDE90154B2
:1057C00069464046FDF7CCFF06B0BDE8F081000019
:1057D00000100240001001400C4810B50A49016059
:1057E0004FF4E1314160002181600C22C160C0E9C9
:1057F00004128161C161FFF7B9FA002803D0BDE846
:105800001040FDF705BF10BD00380140DC0200204C
:105810000C4810B50A4901604FF4E13141600021A4
:1058200081600C22C160C0E904128161C161FFF78F
:105830009DFA002803D0BDE81040FDF7E9BE10BD79
:105840000044004024030020FEE7FEE710B501609D
:105850000A4941600A4981600A49C1600A490161F7
:105860000A4941610A4981610A49C1610A490162E3
:105870000A494162FFF71BFD002010BDF52A000810
:10588000212B0008592B000861620008BB63000847
:10589000196300085F630008D162000821620008F4
:1058A0000246012000E05043491EFCD2704770B50B
:1058B0001446054641F0B00100F00DF8102040EA12
:1058C0001411284600F007F804F00F012846BDE83F
:1058D0007040AFF3008070B50D460168044608685B
:1058E000C968884721688A690868782190472168D3
:1058F00008684969884721688A69086800219047D3
:10590000216808684969884721688A6908682946C2
:1059100090472168086849698847216808680969CB
:10592000BDE87040084770B50D4601680446086838
:10593000C968884721688A69086878219047216882
:1059400008684969884721688A6908684021904742
:10595000216808684969884721688A690868294672
:10596000904721680868496988472168086809697B
:10597000BDE87040084700002DE9FC5F00244FF4AB
:10598000005ADFF8D4B0DFF8D480354D354F5EE0F3
:1059900005EBC4067068002858D055F8341032A0C2
:1059A000FAF7CCFC36A07168FAF7C8FC98F800004A
:1059B00040B155F834102CA001F0C0F830A0716847
:1059C00001F0BCF8706802F046FA5FEA00090DD0F9
:1059D0002CA102F029FA01902BA1484602F024FAEA
:1059E0000090019802F023FA48B904E0BDE8FC5F9A
:1059F00027A0FAF7A3BC009802F019FAC0B10198E9
:105A0000406910B1012807D101E0012200E0002225
:105A100051465846FDF7A1FF0098406910B1012892
:105A20000FD102E002F05AF90BE002F05FF908E052
:105A30001DA0FAF783FC98F8000010B11AA001F03D
:105A40007DF8484602F0C8F900207060641C786850
:105A500084429DDBBDE8FC9F001001400501002051
:105A600028290020300100202225732220E4B8BB21
:105A7000E9A298E58F91E98081EFBC9A00000000CF
:105A800025730A006C6564006265657000000000A3
:105A90004A534F4E20E8A7A3E69E90E5A4B1E8B490
:105AA000A5EFBC815C6E0000E6B2A1E69C89E6949D
:105AB000B6E588B0206C656420E68896206265654E
:105AC0007020E68C87E4BBA4EFBC815C6E00000014
:105AD0000B4610B5014601220348FFF7FFF90028E5
